S00C00004D656E612E7372656397
S11300000C9434000C9449000C9449000C9449005D
S11300100C9449000C9449000C9449000C94490038
S11300200C9449000C9449000C9449000C94490028
S11300300C9449000C9449000C9449000C94490018
S11300400C9449000C9449000C9449000C94490008
S11300500C9449000C9449000C9449000C944900F8
S11300600C9449000C94490011241FBECFEFD8E032
S1130070DEBFCDBF11E0A0E0B1E0EEEAF1E002C0E6
S113008005900D92A031B107D9F70E94B8000C94E5
S1130090D5000C9400005B985D98E9EFF0E031978F
S11300A0F1F700C000005E9AE9EFF0E03197F1F754
S11300B000C0000085B982958F7088B989EF90E0FF
S11300C00197F1F700C000005E98E9EFF0E0319786
S11300D0F1F700C0000008958FEF84B987B18C60F8
S11300E087B98AB188668AB95E9A5B9A5D9A88E311
S11300F00E944B0081E00E944B008CE00E944B0068
S113010008955B9A5D98E9EFF0E03197F1F700C04C
S113011000005E9AE9EFF0E03197F1F700C00000CB
S113012085B982958F7088B989EF90E00197F1F7CE
S113013000C000005E98E9EFF0E03197F1F700C0ED
S1130140000008950F931F93CF93FC0180818823AF
S113015059F08F01C0E00E948100CF5FF801EC0FDD
S1130160F11D80818111F7CFCF911F910F910895D7
S11301700E946C0081E00E944B008FE19EE4019795
S1130180F1F700C0000080E091E00E94A20089E045
S113019091E00E94A2009FEF24E38CE09150204064
S11101A08040E1F700C00000E5CFF894FFCFE7
S11301AE4D6F737461666120004461776F64200043
S9030000FC
