S0150000554152545F50574D5F333238502E7372656334
S11300000C9434000C943E000C943E000C943E007E
S11300100C943E000C943E000C943E000C943E0064
S11300200C943E000C943E000C943E000C943E0054
S11300300C943E000C943E000C943E000C943E0044
S11300400C943E000C943E000C943E000C943E0034
S11300500C943E000C943E000C943E000C943E0024
S11300600C943E000C943E0011241FBECFEFD8E048
S1130070DEBFCDBF0E944A000C94C5000C94000062
S11300808FEF84B98FE787B98EE78AB915B818B8A6
S11300901BB808950E9440000E9488000E946400DA
S11300A00E949500813019F40E945C00F9CF8111FF
S11300B0F7CF0E946000F4CF8BE40E947E00089585
S11300C080E00E947E00089584B5806884BD84B574
S11300D08F7B84BD84B5816084BD84B5826084BD1A
S11300E085B5877F85BD85B58E7F85BD85B58260E5
S11300F085BD85B58B7F85BD17BC08952FEF829F85
S1130100C001112464E670E00E949D0067BD08955B
S11301108FEF8093C4008FE28093C50088E18093C1
S1130120C10086E08093C2000895E0ECF0E0808195
S11301308823ECF78091C600089597FB072E16F4E8
S1130140009407D077FD09D00E94B10007FC05D0C8
S11301503EF4909581959F4F0895709561957F4FDA
S11301600895AA1BBB1B51E107C0AA1FBB1FA617FA
S1130170B70710F0A61BB70B881F991F5A95A9F74C
S111018080959095BC01CD010895F894FFCFB1
S9030000FC
