S01400004750545F4144435F333238502E73726563B2
S11300000C9434000C9446000C9446000C94460066
S11300100C9446000C9446000C9446000C94460044
S11300200C9446000C9446000C9446000C94460034
S11300300C9446000C9446000C9446000C94460024
S11300400C94F6000C9446000C9446000C94460064
S11300500C9446000C9446000C9446000C94460004
S11300600C9446000C94460011241FBECFEFD8E038
S1130070DEBFCDBF21E0A0E0B1E001C01D92A230FF
S1130080B207E1F70E947F000C94C8020C940000B0
S113009080EC80937C0087E880937A000895ECE7F5
S11300A0F0E090818770982B9083EAE7F0E08081FC
S11300B080648083808184FFFDCFEAE7F0E0808163
S11300C0806180832091780030917900AFE8B3EEAD
S11300D00E94B902969587959695879596958795EA
S11300E008958FEF84B98EE787B98FE78AB915B879
S11300F018B81BB808955A9A08955A980895789490
S11301000E9471000E94A5000E9448000E940D01F7
S11301100E94CA00693E734081059105C8F30E949C
S1130120A100449730F081E00E941A010E947B00F4
S113013005C080E00E941A010E947D000E94C40054
S1130140E7CF80E00E944F00089584B58E7F84BD80
S113015084B58D7F84BD84B58F7784BD84B58F7B52
S113016084BD85B5877F85BD85B58B7F85BD85B508
S1130170826085BD85B5816085BDEEE6F0E0808155
S11301808160808316BC089516BC10920101109200
S113019000010895CF92DF92EF92FF92CF93609186
S11301A0000170910101C6B5660F771F80E090E0F1
S11301B00E94BE016B017C016C2F70E080E090E036
S11301C00E94C0012FE632E143E05CE30E944C024E
S11301D09B01AC01C701B6010E9423010E948F015B
S11301E0CF91FF90EF90DF90CF9008951F920F92E0
S11301F00FB60F9211248F939F93809100019091D9
S11302000101019690930101809300019F918F91C8
S11302100F900FBE0F901F9018958FEF8093C4001E
S11302208FE28093C50088E18093C10086E08093CB
S1130230C2000895E0ECF0E0908195FFFDCF80933B
S1130240C60008955058BB27AA270E943A010C946F
S113025012020E94040238F00E940B0220F039F4CA
S11302609F3F19F426F40C9401020EF4E095E7FB89
S11302700C94FB01E92F0E94230258F3BA1762077A
S113028073078407950720F079F4A6F50C944502CA
S11302900EF4E0950B2EBA2FA02D0B01B90190019D
S11302A00C01CA01A0011124FF27591B99F0593FE1
S11302B050F4503E68F11A16F040A22F232F342F29
S11302C04427585FF3CF469537952795A795F04077
S11302D05395C9F77EF41F16BA0B620B730B840B8C
S11302E0BAF09150A1F0FF0FBB1F661F771F881F44
S11302F0C2F70EC0BA0F621F731F841F48F487959C
S113030077956795B795F7959E3F08F0B0CF93958D
S1130310880F08F09927EE0F9795879508950E9406
S11303202B0288F09F5798F0B92F9927B751B0F056
S1130330E1F0660F771F881F991F1AF0BA95C9F765
S113034014C0B13091F00E944502B1E008950C94BC
S11303504502672F782F8827B85F39F0B93FCCF36F
S1130360869577956795B395D9F73EF490958095E2
S1130370709561957F4F8F4F9F4F0895E89409C002
S113038097FB3EF490958095709561957F4F8F4FC4
S11303909F4F9923A9F0F92F96E9BB279395F695DA
S11303A0879577956795B795F111F8CFFAF4BB0F58
S11303B011F460FF1BC06F5F7F4F8F4F9F4F16C0BC
S11303C0882311F096E911C0772321F09EE8872F46
S11303D0762F05C0662371F096E8862F70E060E002
S11303E02AF09A95660F771F881FDAF7880F96957B
S11303F0879597F9089597F99F6780E870E060E022
S113040008959FEF80EC089500240A9416161706A9
S113041018060906089500240A94121613061406F1
S113042005060895092E0394000C11F4882352F054
S1130430BB0F40F4BF2B11F460FF04C06F5F7F4F0C
S11304408F4F9F4F089557FD9058440F551F59F0F3
S11304505F3F71F04795880F97FB991F61F09F3FAD
S113046079F087950895121613061406551FF2CFD6
S11304704695F1DF08C0161617061806991FF1CF26
S113048086957105610508940895E894BB2766274D
S11304907727CB0197F908950E945F020C9412020A
S11304A00E94040238F00E940B0220F0952311F000
S11304B00C94FB010C94010211240C9446020E943A
S11304C0230270F3959FC1F3950F50E0551F629F6F
S11304D0F001729FBB27F00DB11D639FAA27F00D99
S11304E0B11DAA1F649F6627B00DA11D661F829FC0
S11304F02227B00DA11D621F739FB00DA11D621FA5
S1130500839FA00D611D221F749F3327A00D611DC1
S1130510231F849F600D211D822F762F6A2F1124A3
S11305209F5750409AF0F1F088234AF0EE0FFF1FD6
S1130530BB1F661F771F881F91505040A9F79E3F2D
S1130540510580F00C94FB010C9446025F3FE4F3E8
S1130550983ED4F3869577956795B795F795E79583
S11305609F5FC1F7FE2B880F911D9695879597F98C
S11305700895A29FB001B39FC001A39F700D811D78
S11305801124911DB29F700D811D1124911D089598
S1070590F894FFCF09
S9030000FC
